{
  "contractName": "DappVotes",
  "abi": [
    {
      "anonymous": false,
      "inputs": [
        {
          "indexed": true,
          "internalType": "address",
          "name": "voter",
          "type": "address"
        },
        {
          "indexed": false,
          "internalType": "uint256",
          "name": "timestamp",
          "type": "uint256"
        }
      ],
      "name": "Voted",
      "type": "event"
    },
    {
      "inputs": [
        {
          "internalType": "string",
          "name": "image",
          "type": "string"
        },
        {
          "internalType": "string",
          "name": "title",
          "type": "string"
        },
        {
          "internalType": "string",
          "name": "description",
          "type": "string"
        },
        {
          "internalType": "uint256",
          "name": "startsAt",
          "type": "uint256"
        },
        {
          "internalType": "uint256",
          "name": "endsAt",
          "type": "uint256"
        }
      ],
      "name": "createPoll",
      "outputs": [],
      "stateMutability": "nonpayable",
      "type": "function"
    },
    {
      "inputs": [
        {
          "internalType": "uint256",
          "name": "id",
          "type": "uint256"
        },
        {
          "internalType": "string",
          "name": "image",
          "type": "string"
        },
        {
          "internalType": "string",
          "name": "title",
          "type": "string"
        },
        {
          "internalType": "string",
          "name": "description",
          "type": "string"
        },
        {
          "internalType": "uint256",
          "name": "startsAt",
          "type": "uint256"
        },
        {
          "internalType": "uint256",
          "name": "endsAt",
          "type": "uint256"
        }
      ],
      "name": "updatePoll",
      "outputs": [],
      "stateMutability": "nonpayable",
      "type": "function"
    },
    {
      "inputs": [
        {
          "internalType": "uint256",
          "name": "id",
          "type": "uint256"
        }
      ],
      "name": "deletePoll",
      "outputs": [],
      "stateMutability": "nonpayable",
      "type": "function"
    },
    {
      "inputs": [
        {
          "internalType": "uint256",
          "name": "id",
          "type": "uint256"
        }
      ],
      "name": "getPoll",
      "outputs": [
        {
          "components": [
            {
              "internalType": "uint256",
              "name": "id",
              "type": "uint256"
            },
            {
              "internalType": "string",
              "name": "image",
              "type": "string"
            },
            {
              "internalType": "string",
              "name": "title",
              "type": "string"
            },
            {
              "internalType": "string",
              "name": "description",
              "type": "string"
            },
            {
              "internalType": "uint256",
              "name": "votes",
              "type": "uint256"
            },
            {
              "internalType": "uint256",
              "name": "contestants",
              "type": "uint256"
            },
            {
              "internalType": "bool",
              "name": "deleted",
              "type": "bool"
            },
            {
              "internalType": "address",
              "name": "director",
              "type": "address"
            },
            {
              "internalType": "uint256",
              "name": "startsAt",
              "type": "uint256"
            },
            {
              "internalType": "uint256",
              "name": "endsAt",
              "type": "uint256"
            },
            {
              "internalType": "uint256",
              "name": "timestamp",
              "type": "uint256"
            },
            {
              "internalType": "address[]",
              "name": "voters",
              "type": "address[]"
            },
            {
              "internalType": "string[]",
              "name": "avatars",
              "type": "string[]"
            }
          ],
          "internalType": "struct DappVotes.PollStruct",
          "name": "",
          "type": "tuple"
        }
      ],
      "stateMutability": "view",
      "type": "function",
      "constant": true
    },
    {
      "inputs": [],
      "name": "getPolls",
      "outputs": [
        {
          "components": [
            {
              "internalType": "uint256",
              "name": "id",
              "type": "uint256"
            },
            {
              "internalType": "string",
              "name": "image",
              "type": "string"
            },
            {
              "internalType": "string",
              "name": "title",
              "type": "string"
            },
            {
              "internalType": "string",
              "name": "description",
              "type": "string"
            },
            {
              "internalType": "uint256",
              "name": "votes",
              "type": "uint256"
            },
            {
              "internalType": "uint256",
              "name": "contestants",
              "type": "uint256"
            },
            {
              "internalType": "bool",
              "name": "deleted",
              "type": "bool"
            },
            {
              "internalType": "address",
              "name": "director",
              "type": "address"
            },
            {
              "internalType": "uint256",
              "name": "startsAt",
              "type": "uint256"
            },
            {
              "internalType": "uint256",
              "name": "endsAt",
              "type": "uint256"
            },
            {
              "internalType": "uint256",
              "name": "timestamp",
              "type": "uint256"
            },
            {
              "internalType": "address[]",
              "name": "voters",
              "type": "address[]"
            },
            {
              "internalType": "string[]",
              "name": "avatars",
              "type": "string[]"
            }
          ],
          "internalType": "struct DappVotes.PollStruct[]",
          "name": "Polls",
          "type": "tuple[]"
        }
      ],
      "stateMutability": "view",
      "type": "function",
      "constant": true
    },
    {
      "inputs": [
        {
          "internalType": "uint256",
          "name": "id",
          "type": "uint256"
        },
        {
          "internalType": "string",
          "name": "name",
          "type": "string"
        },
        {
          "internalType": "string",
          "name": "image",
          "type": "string"
        }
      ],
      "name": "contest",
      "outputs": [],
      "stateMutability": "nonpayable",
      "type": "function"
    },
    {
      "inputs": [
        {
          "internalType": "uint256",
          "name": "id",
          "type": "uint256"
        },
        {
          "internalType": "uint256",
          "name": "cid",
          "type": "uint256"
        }
      ],
      "name": "getContestant",
      "outputs": [
        {
          "components": [
            {
              "internalType": "uint256",
              "name": "id",
              "type": "uint256"
            },
            {
              "internalType": "string",
              "name": "image",
              "type": "string"
            },
            {
              "internalType": "string",
              "name": "name",
              "type": "string"
            },
            {
              "internalType": "address",
              "name": "voter",
              "type": "address"
            },
            {
              "internalType": "uint256",
              "name": "votes",
              "type": "uint256"
            },
            {
              "internalType": "address[]",
              "name": "voters",
              "type": "address[]"
            }
          ],
          "internalType": "struct DappVotes.ContestantStruct",
          "name": "",
          "type": "tuple"
        }
      ],
      "stateMutability": "view",
      "type": "function",
      "constant": true
    },
    {
      "inputs": [
        {
          "internalType": "uint256",
          "name": "id",
          "type": "uint256"
        }
      ],
      "name": "getContestants",
      "outputs": [
        {
          "components": [
            {
              "internalType": "uint256",
              "name": "id",
              "type": "uint256"
            },
            {
              "internalType": "string",
              "name": "image",
              "type": "string"
            },
            {
              "internalType": "string",
              "name": "name",
              "type": "string"
            },
            {
              "internalType": "address",
              "name": "voter",
              "type": "address"
            },
            {
              "internalType": "uint256",
              "name": "votes",
              "type": "uint256"
            },
            {
              "internalType": "address[]",
              "name": "voters",
              "type": "address[]"
            }
          ],
          "internalType": "struct DappVotes.ContestantStruct[]",
          "name": "Contestants",
          "type": "tuple[]"
        }
      ],
      "stateMutability": "view",
      "type": "function",
      "constant": true
    },
    {
      "inputs": [
        {
          "internalType": "uint256",
          "name": "id",
          "type": "uint256"
        },
        {
          "internalType": "uint256",
          "name": "cid",
          "type": "uint256"
        }
      ],
      "name": "vote",
      "outputs": [],
      "stateMutability": "nonpayable",
      "type": "function"
    }
  ],
  "bytecode": "0x608060405234801561000f575f80fd5b50613a408061001d5f395ff3fe608060405234801561000f575f80fd5b5060043610610091575f3560e01c806366dd51dc1161006457806366dd51dc1461011b578063b384abef14610137578063cee9dc4514610153578063d343641114610183578063f0d0bc45146101b357610091565b8063029433f014610095578063120fe89b146100b15780631a8cbcaa146100cf5780631f35b51d146100ff575b5f80fd5b6100af60048036038101906100aa91906124c8565b6101cf565b005b6100b9610531565b6040516100c691906129d7565b60405180910390f35b6100e960048036038101906100e491906129f7565b610a3d565b6040516100f69190612b54565b60405180910390f35b610119600480360381019061011491906129f7565b610e23565b005b61013560048036038101906101309190612b74565b610fa8565b005b610151600480360381019061014c9190612bfc565b611388565b005b61016d600480360381019061016891906129f7565b6117cb565b60405161017a9190612d89565b60405180910390f35b61019d60048036038101906101989190612bfc565b611b4a565b6040516101aa9190612e3d565b60405180910390f35b6101cd60048036038101906101c89190612e5d565b611d98565b005b60025f8781526020019081526020015f205f9054906101000a900460ff1661022c576040517f08c379a000000000000000000000000000000000000000000000000000000000815260040161022390612f82565b60405180910390fd5b3373ffffffffffffffffffffffffffffffffffffffff1660035f8881526020019081526020015f2060060160019054906101000a900473ffffffffffffffffffffffffffffffffffffffff1673ffffffffffffffffffffffffffffffffffffffff16146102ce576040517f08c379a00000000000000000000000000000000000000000000000000000000081526004016102c590612fea565b60405180910390fd5b5f845111610311576040517f08c379a000000000000000000000000000000000000000000000000000000000815260040161030890613052565b60405180910390fd5b5f835111610354576040517f08c379a000000000000000000000000000000000000000000000000000000000815260040161034b906130ba565b60405180910390fd5b5f855111610397576040517f08c379a000000000000000000000000000000000000000000000000000000000815260040161038e90613122565b60405180910390fd5b60035f8781526020019081526020015f206006015f9054906101000a900460ff16156103f8576040517f08c379a00000000000000000000000000000000000000000000000000000000081526004016103ef9061318a565b60405180910390fd5b600160035f8881526020019081526020015f20600401541061044f576040517f08c379a0000000000000000000000000000000000000000000000000000000008152600401610446906131f2565b60405180910390fd5b818111610491576040517f08c379a000000000000000000000000000000000000000000000000000000000815260040161048890613280565b60405180910390fd5b8360035f8881526020019081526020015f2060020190816104b29190613498565b508260035f8881526020019081526020015f2060030190816104d49190613498565b508160035f8881526020019081526020015f20600701819055508060035f8881526020019081526020015f20600801819055508460035f8881526020019081526020015f2060010190816105289190613498565b50505050505050565b60605f80600190505b6105435f6120ef565b81116105905760035f8281526020019081526020015f206006015f9054906101000a900460ff1661057d57818061057990613594565b9250505b808061058890613594565b91505061053a565b508067ffffffffffffffff8111156105ab576105aa6123a4565b5b6040519080825280602002602001820160405280156105e457816020015b6105d161212e565b8152602001906001900390816105c95790505b5091505f80600190505b6105f75f6120ef565b8111610a375760035f8281526020019081526020015f206006015f9054906101000a900460ff16610a245760035f8281526020019081526020015f20604051806101a00160405290815f8201548152602001600182018054610658906132cb565b80601f0160208091040260200160405190810160405280929190818152602001828054610684906132cb565b80156106cf5780601f106106a6576101008083540402835291602001916106cf565b820191905f5260205f20905b8154815290600101906020018083116106b257829003601f168201915b505050505081526020016002820180546106e8906132cb565b80601f0160208091040260200160405190810160405280929190818152602001828054610714906132cb565b801561075f5780601f106107365761010080835404028352916020019161075f565b820191905f5260205f20905b81548152906001019060200180831161074257829003601f168201915b50505050508152602001600382018054610778906132cb565b80601f01602080910402602001604051908101604052809291908181526020018280546107a4906132cb565b80156107ef5780601f106107c6576101008083540402835291602001916107ef565b820191905f5260205f20905b8154815290600101906020018083116107d257829003601f168201915b505050505081526020016004820154815260200160058201548152602001600682015f9054906101000a900460ff161515151581526020016006820160019054906101000a900473ffffffffffffffffffffffffffffffffffffffff1673ffffffffffffffffffffffffffffffffffffffff1673ffffffffffffffffffffffffffffffffffffffff168152602001600782015481526020016008820154815260200160098201548152602001600a820180548060200260200160405190810160405280929190818152602001828054801561091c57602002820191905f5260205f20905b815f9054906101000a900473ffffffffffffffffffffffffffffffffffffffff1673ffffffffffffffffffffffffffffffffffffffff16815260200190600101908083116108d3575b50505050508152602001600b8201805480602002602001604051908101604052809291908181526020015f905b828210156109f1578382905f5260205f20018054610966906132cb565b80601f0160208091040260200160405190810160405280929190818152602001828054610992906132cb565b80156109dd5780601f106109b4576101008083540402835291602001916109dd565b820191905f5260205f20905b8154815290600101906020018083116109c057829003601f168201915b505050505081526020019060010190610949565b5050505081525050848380610a0590613594565b945081518110610a1857610a176135db565b5b60200260200101819052505b8080610a2f90613594565b9150506105ee565b50505090565b610a4561212e565b60035f8381526020019081526020015f20604051806101a00160405290815f8201548152602001600182018054610a7b906132cb565b80601f0160208091040260200160405190810160405280929190818152602001828054610aa7906132cb565b8015610af25780601f10610ac957610100808354040283529160200191610af2565b820191905f5260205f20905b815481529060010190602001808311610ad557829003601f168201915b50505050508152602001600282018054610b0b906132cb565b80601f0160208091040260200160405190810160405280929190818152602001828054610b37906132cb565b8015610b825780601f10610b5957610100808354040283529160200191610b82565b820191905f5260205f20905b815481529060010190602001808311610b6557829003601f168201915b50505050508152602001600382018054610b9b906132cb565b80601f0160208091040260200160405190810160405280929190818152602001828054610bc7906132cb565b8015610c125780601f10610be957610100808354040283529160200191610c12565b820191905f5260205f20905b815481529060010190602001808311610bf557829003601f168201915b505050505081526020016004820154815260200160058201548152602001600682015f9054906101000a900460ff161515151581526020016006820160019054906101000a900473ffffffffffffffffffffffffffffffffffffffff1673ffffffffffffffffffffffffffffffffffffffff1673ffffffffffffffffffffffffffffffffffffffff168152602001600782015481526020016008820154815260200160098201548152602001600a8201805480602002602001604051908101604052809291908181526020018280548015610d3f57602002820191905f5260205f20905b815f9054906101000a900473ffffffffffffffffffffffffffffffffffffffff1673ffffffffffffffffffffffffffffffffffffffff1681526020019060010190808311610cf6575b50505050508152602001600b8201805480602002602001604051908101604052809291908181526020015f905b82821015610e14578382905f5260205f20018054610d89906132cb565b80601f0160208091040260200160405190810160405280929190818152602001828054610db5906132cb565b8015610e005780601f10610dd757610100808354040283529160200191610e00565b820191905f5260205f20905b815481529060010190602001808311610de357829003601f168201915b505050505081526020019060010190610d6c565b50505050815250509050919050565b60025f8281526020019081526020015f205f9054906101000a900460ff16610e80576040517f08c379a0000000000000000000000000000000000000000000000000000000008152600401610e7790612f82565b60405180910390fd5b3373ffffffffffffffffffffffffffffffffffffffff1660035f8381526020019081526020015f2060060160019054906101000a900473ffffffffffffffffffffffffffffffffffffffff1673ffffffffffffffffffffffffffffffffffffffff1614610f22576040517f08c379a0000000000000000000000000000000000000000000000000000000008152600401610f1990612fea565b60405180910390fd5b600160035f8381526020019081526020015f206004015410610f79576040517f08c379a0000000000000000000000000000000000000000000000000000000008152600401610f70906131f2565b60405180910390fd5b600160035f8381526020019081526020015f206006015f6101000a81548160ff02191690831515021790555050565b60025f8481526020019081526020015f205f9054906101000a900460ff16611005576040517f08c379a0000000000000000000000000000000000000000000000000000000008152600401610ffc90612f82565b60405180910390fd5b5f825111611048576040517f08c379a000000000000000000000000000000000000000000000000000000000815260040161103f90613652565b60405180910390fd5b5f81511161108b576040517f08c379a0000000000000000000000000000000000000000000000000000000008152600401611082906136ba565b60405180910390fd5b600160035f8581526020019081526020015f2060040154106110e2576040517f08c379a00000000000000000000000000000000000000000000000000000000081526004016110d9906131f2565b60405180910390fd5b60055f8481526020019081526020015f205f3373ffffffffffffffffffffffffffffffffffffffff1673ffffffffffffffffffffffffffffffffffffffff1681526020019081526020015f205f9054906101000a900460ff161561117b576040517f08c379a000000000000000000000000000000000000000000000000000000000815260040161117290613722565b60405180910390fd5b61118560016120fb565b61118d6121a6565b82816040018190525081816020018190525033816060019073ffffffffffffffffffffffffffffffffffffffff16908173ffffffffffffffffffffffffffffffffffffffff16815250506111e160016120ef565b815f0181815250508060065f8681526020019081526020015f205f835f015181526020019081526020015f205f820151815f0155602082015181600101908161122a9190613498565b5060408201518160020190816112409190613498565b506060820151816003015f6101000a81548173ffffffffffffffffffffffffffffffffffffffff021916908373ffffffffffffffffffffffffffffffffffffffff1602179055506080820151816004015560a08201518160050190805190602001906112ad9291906121ef565b50905050600160055f8681526020019081526020015f205f3373ffffffffffffffffffffffffffffffffffffffff1673ffffffffffffffffffffffffffffffffffffffff1681526020019081526020015f205f6101000a81548160ff02191690831515021790555060035f8581526020019081526020015f20600b0182908060018154018082558091505060019003905f5260205f20015f9091909190915090816113589190613498565b5060035f8581526020019081526020015f206005015f81548092919061137d90613594565b919050555050505050565b60025f8381526020019081526020015f205f9054906101000a900460ff166113e5576040517f08c379a00000000000000000000000000000000000000000000000000000000081526004016113dc90612f82565b60405180910390fd5b60045f8381526020019081526020015f205f3373ffffffffffffffffffffffffffffffffffffffff1673ffffffffffffffffffffffffffffffffffffffff1681526020019081526020015f205f9054906101000a900460ff161561147e576040517f08c379a00000000000000000000000000000000000000000000000000000000081526004016114759061378a565b60405180910390fd5b60035f8381526020019081526020015f206006015f9054906101000a900460ff16156114df576040517f08c379a00000000000000000000000000000000000000000000000000000000081526004016114d6906137f2565b60405180910390fd5b600160035f8481526020019081526020015f206005015411611536576040517f08c379a000000000000000000000000000000000000000000000000000000000815260040161152d9061385a565b60405180910390fd5b60035f8381526020019081526020015f206007015461155361210f565b1015801561157b575060035f8381526020019081526020015f206008015461157961210f565b105b6115ba576040517f08c379a00000000000000000000000000000000000000000000000000000000081526004016115b1906138c2565b60405180910390fd5b60035f8381526020019081526020015f206004015f8154809291906115de90613594565b919050555060035f8381526020019081526020015f20600a0133908060018154018082558091505060019003905f5260205f20015f9091909190916101000a81548173ffffffffffffffffffffffffffffffffffffffff021916908373ffffffffffffffffffffffffffffffffffffffff16021790555060065f8381526020019081526020015f205f8281526020019081526020015f206004015f81548092919061168890613594565b919050555060065f8381526020019081526020015f205f8281526020019081526020015f2060050133908060018154018082558091505060019003905f5260205f20015f9091909190916101000a81548173ffffffffffffffffffffffffffffffffffffffff021916908373ffffffffffffffffffffffffffffffffffffffff160217905550600160045f8481526020019081526020015f205f3373ffffffffffffffffffffffffffffffffffffffff1673ffffffffffffffffffffffffffffffffffffffff1681526020019081526020015f205f6101000a81548160ff0219169083151502179055503373ffffffffffffffffffffffffffffffffffffffff167f4d99b957a2bc29a30ebd96a7be8e68fe50a3c701db28a91436490b7d53870ca46117b261210f565b6040516117bf91906138ef565b60405180910390a25050565b60605f80600190505b6117de60016120ef565b811161182f578060065f8681526020019081526020015f205f8381526020019081526020015f205f01540361181c57818061181890613594565b9250505b808061182790613594565b9150506117d4565b508067ffffffffffffffff81111561184a576118496123a4565b5b60405190808252806020026020018201604052801561188357816020015b6118706121a6565b8152602001906001900390816118685790505b5091505f80600190505b61189760016120ef565b8111611b42578060065f8781526020019081526020015f205f8381526020019081526020015f205f015403611b2f5760065f8681526020019081526020015f205f8281526020019081526020015f206040518060c00160405290815f820154815260200160018201805461190a906132cb565b80601f0160208091040260200160405190810160405280929190818152602001828054611936906132cb565b80156119815780601f1061195857610100808354040283529160200191611981565b820191905f5260205f20905b81548152906001019060200180831161196457829003601f168201915b5050505050815260200160028201805461199a906132cb565b80601f01602080910402602001604051908101604052809291908181526020018280546119c6906132cb565b8015611a115780601f106119e857610100808354040283529160200191611a11565b820191905f5260205f20905b8154815290600101906020018083116119f457829003601f168201915b50505050508152602001600382015f9054906101000a900473ffffffffffffffffffffffffffffffffffffffff1673ffffffffffffffffffffffffffffffffffffffff1673ffffffffffffffffffffffffffffffffffffffff1681526020016004820154815260200160058201805480602002602001604051908101604052809291908181526020018280548015611afb57602002820191905f5260205f20905b815f9054906101000a900473ffffffffffffffffffffffffffffffffffffffff1673ffffffffffffffffffffffffffffffffffffffff1681526020019060010190808311611ab2575b505050505081525050848380611b1090613594565b945081518110611b2357611b226135db565b5b60200260200101819052505b8080611b3a90613594565b91505061188d565b505050919050565b611b526121a6565b60065f8481526020019081526020015f205f8381526020019081526020015f206040518060c00160405290815f8201548152602001600182018054611b96906132cb565b80601f0160208091040260200160405190810160405280929190818152602001828054611bc2906132cb565b8015611c0d5780601f10611be457610100808354040283529160200191611c0d565b820191905f5260205f20905b815481529060010190602001808311611bf057829003601f168201915b50505050508152602001600282018054611c26906132cb565b80601f0160208091040260200160405190810160405280929190818152602001828054611c52906132cb565b8015611c9d5780601f10611c7457610100808354040283529160200191611c9d565b820191905f5260205f20905b815481529060010190602001808311611c8057829003601f168201915b50505050508152602001600382015f9054906101000a900473ffffffffffffffffffffffffffffffffffffffff1673ffffffffffffffffffffffffffffffffffffffff1673ffffffffffffffffffffffffffffffffffffffff1681526020016004820154815260200160058201805480602002602001604051908101604052809291908181526020018280548015611d8757602002820191905f5260205f20905b815f9054906101000a900473ffffffffffffffffffffffffffffffffffffffff1673ffffffffffffffffffffffffffffffffffffffff1681526020019060010190808311611d3e575b505050505081525050905092915050565b5f845111611ddb576040517f08c379a0000000000000000000000000000000000000000000000000000000008152600401611dd290613052565b60405180910390fd5b5f835111611e1e576040517f08c379a0000000000000000000000000000000000000000000000000000000008152600401611e15906130ba565b60405180910390fd5b5f855111611e61576040517f08c379a0000000000000000000000000000000000000000000000000000000008152600401611e5890613122565b60405180910390fd5b5f8211611ea3576040517f08c379a0000000000000000000000000000000000000000000000000000000008152600401611e9a90613978565b60405180910390fd5b818111611ee5576040517f08c379a0000000000000000000000000000000000000000000000000000000008152600401611edc90613280565b60405180910390fd5b611eee5f6120fb565b611ef661212e565b611eff5f6120ef565b815f01818152505084816040018190525083816060018190525085816020018190525082816101000181815250508181610120018181525050338160e0019073ffffffffffffffffffffffffffffffffffffffff16908173ffffffffffffffffffffffffffffffffffffffff1681525050611f7861210f565b816101400181815250508060035f835f015181526020019081526020015f205f820151815f01556020820151816001019081611fb49190613498565b506040820151816002019081611fca9190613498565b506060820151816003019081611fe09190613498565b506080820151816004015560a0820151816005015560c0820151816006015f6101000a81548160ff02191690831515021790555060e08201518160060160016101000a81548173ffffffffffffffffffffffffffffffffffffffff021916908373ffffffffffffffffffffffffffffffffffffffff16021790555061010082015181600701556101208201518160080155610140820151816009015561016082015181600a0190805190602001906120999291906121ef565b5061018082015181600b0190805190602001906120b7929190612276565b50905050600160025f835f015181526020019081526020015f205f6101000a81548160ff021916908315150217905550505050505050565b5f815f01549050919050565b6001815f015f828254019250508190555050565b5f6103e8804261211f9190613996565b61212991906139d7565b905090565b604051806101a001604052805f81526020016060815260200160608152602001606081526020015f81526020015f81526020015f151581526020015f73ffffffffffffffffffffffffffffffffffffffff1681526020015f81526020015f81526020015f815260200160608152602001606081525090565b6040518060c001604052805f815260200160608152602001606081526020015f73ffffffffffffffffffffffffffffffffffffffff1681526020015f8152602001606081525090565b828054828255905f5260205f20908101928215612265579160200282015b82811115612264578251825f6101000a81548173ffffffffffffffffffffffffffffffffffffffff021916908373ffffffffffffffffffffffffffffffffffffffff1602179055509160200191906001019061220d565b5b50905061227291906122cd565b5090565b828054828255905f5260205f209081019282156122bc579160200282015b828111156122bb5782518290816122ab9190613498565b5091602001919060010190612294565b5b5090506122c991906122e8565b5090565b5b808211156122e4575f815f9055506001016122ce565b5090565b5b80821115612307575f81816122fe919061230b565b506001016122e9565b5090565b508054612317906132cb565b5f825580601f106123285750612345565b601f0160209004905f5260205f209081019061234491906122cd565b5b50565b5f604051905090565b5f80fd5b5f80fd5b5f819050919050565b61236b81612359565b8114612375575f80fd5b50565b5f8135905061238681612362565b92915050565b5f80fd5b5f80fd5b5f601f19601f8301169050919050565b7f4e487b71000000000000000000000000000000000000000000000000000000005f52604160045260245ffd5b6123da82612394565b810181811067ffffffffffffffff821117156123f9576123f86123a4565b5b80604052505050565b5f61240b612348565b905061241782826123d1565b919050565b5f67ffffffffffffffff821115612436576124356123a4565b5b61243f82612394565b9050602081019050919050565b828183375f83830152505050565b5f61246c6124678461241c565b612402565b90508281526020810184848401111561248857612487612390565b5b61249384828561244c565b509392505050565b5f82601f8301126124af576124ae61238c565b5b81356124bf84826020860161245a565b91505092915050565b5f805f805f8060c087890312156124e2576124e1612351565b5b5f6124ef89828a01612378565b965050602087013567ffffffffffffffff8111156125105761250f612355565b5b61251c89828a0161249b565b955050604087013567ffffffffffffffff81111561253d5761253c612355565b5b61254989828a0161249b565b945050606087013567ffffffffffffffff81111561256a57612569612355565b5b61257689828a0161249b565b935050608061258789828a01612378565b92505060a061259889828a01612378565b9150509295509295509295565b5f81519050919050565b5f82825260208201905092915050565b5f819050602082019050919050565b6125d781612359565b82525050565b5f81519050919050565b5f82825260208201905092915050565b5f5b838110156126145780820151818401526020810190506125f9565b5f8484015250505050565b5f612629826125dd565b61263381856125e7565b93506126438185602086016125f7565b61264c81612394565b840191505092915050565b5f8115159050919050565b61266b81612657565b82525050565b5f73ffffffffffffffffffffffffffffffffffffffff82169050919050565b5f61269a82612671565b9050919050565b6126aa81612690565b82525050565b5f81519050919050565b5f82825260208201905092915050565b5f819050602082019050919050565b5f6126e483836126a1565b60208301905092915050565b5f602082019050919050565b5f612706826126b0565b61271081856126ba565b935061271b836126ca565b805f5b8381101561274b57815161273288826126d9565b975061273d836126f0565b92505060018101905061271e565b5085935050505092915050565b5f81519050919050565b5f82825260208201905092915050565b5f819050602082019050919050565b5f61278c838361261f565b905092915050565b5f602082019050919050565b5f6127aa82612758565b6127b48185612762565b9350836020820285016127c685612772565b805f5b8581101561280157848403895281516127e28582612781565b94506127ed83612794565b925060208a019950506001810190506127c9565b50829750879550505050505092915050565b5f6101a083015f8301516128295f8601826125ce565b5060208301518482036020860152612841828261261f565b9150506040830151848203604086015261285b828261261f565b91505060608301518482036060860152612875828261261f565b915050608083015161288a60808601826125ce565b5060a083015161289d60a08601826125ce565b5060c08301516128b060c0860182612662565b5060e08301516128c360e08601826126a1565b506101008301516128d86101008601826125ce565b506101208301516128ed6101208601826125ce565b506101408301516129026101408601826125ce565b5061016083015184820361016086015261291c82826126fc565b91505061018083015184820361018086015261293882826127a0565b9150508091505092915050565b5f6129508383612813565b905092915050565b5f602082019050919050565b5f61296e826125a5565b61297881856125af565b93508360208202850161298a856125bf565b805f5b858110156129c557848403895281516129a68582612945565b94506129b183612958565b925060208a0199505060018101905061298d565b50829750879550505050505092915050565b5f6020820190508181035f8301526129ef8184612964565b905092915050565b5f60208284031215612a0c57612a0b612351565b5b5f612a1984828501612378565b91505092915050565b5f6101a083015f830151612a385f8601826125ce565b5060208301518482036020860152612a50828261261f565b91505060408301518482036040860152612a6a828261261f565b91505060608301518482036060860152612a84828261261f565b9150506080830151612a9960808601826125ce565b5060a0830151612aac60a08601826125ce565b5060c0830151612abf60c0860182612662565b5060e0830151612ad260e08601826126a1565b50610100830151612ae76101008601826125ce565b50610120830151612afc6101208601826125ce565b50610140830151612b116101408601826125ce565b50610160830151848203610160860152612b2b82826126fc565b915050610180830151848203610180860152612b4782826127a0565b9150508091505092915050565b5f6020820190508181035f830152612b6c8184612a22565b905092915050565b5f805f60608486031215612b8b57612b8a612351565b5b5f612b9886828701612378565b935050602084013567ffffffffffffffff811115612bb957612bb8612355565b5b612bc58682870161249b565b925050604084013567ffffffffffffffff811115612be657612be5612355565b5b612bf28682870161249b565b9150509250925092565b5f8060408385031215612c1257612c11612351565b5b5f612c1f85828601612378565b9250506020612c3085828601612378565b9150509250929050565b5f81519050919050565b5f82825260208201905092915050565b5f819050602082019050919050565b5f60c083015f830151612c785f8601826125ce565b5060208301518482036020860152612c90828261261f565b91505060408301518482036040860152612caa828261261f565b9150506060830151612cbf60608601826126a1565b506080830151612cd260808601826125ce565b5060a083015184820360a0860152612cea82826126fc565b9150508091505092915050565b5f612d028383612c63565b905092915050565b5f602082019050919050565b5f612d2082612c3a565b612d2a8185612c44565b935083602082028501612d3c85612c54565b805f5b85811015612d775784840389528151612d588582612cf7565b9450612d6383612d0a565b925060208a01995050600181019050612d3f565b50829750879550505050505092915050565b5f6020820190508181035f830152612da18184612d16565b905092915050565b5f60c083015f830151612dbe5f8601826125ce565b5060208301518482036020860152612dd6828261261f565b91505060408301518482036040860152612df0828261261f565b9150506060830151612e0560608601826126a1565b506080830151612e1860808601826125ce565b5060a083015184820360a0860152612e3082826126fc565b9150508091505092915050565b5f6020820190508181035f830152612e558184612da9565b905092915050565b5f805f805f60a08688031215612e7657612e75612351565b5b5f86013567ffffffffffffffff811115612e9357612e92612355565b5b612e9f8882890161249b565b955050602086013567ffffffffffffffff811115612ec057612ebf612355565b5b612ecc8882890161249b565b945050604086013567ffffffffffffffff811115612eed57612eec612355565b5b612ef98882890161249b565b9350506060612f0a88828901612378565b9250506080612f1b88828901612378565b9150509295509295909350565b5f82825260208201905092915050565b7f506f6c6c206e6f7420666f756e640000000000000000000000000000000000005f82015250565b5f612f6c600e83612f28565b9150612f7782612f38565b602082019050919050565b5f6020820190508181035f830152612f9981612f60565b9050919050565b7f556e617574686f72697a656420656e74697479000000000000000000000000005f82015250565b5f612fd4601383612f28565b9150612fdf82612fa0565b602082019050919050565b5f6020820190508181035f83015261300181612fc8565b9050919050565b7f5469746c652063616e6e6f7420626520656d70747900000000000000000000005f82015250565b5f61303c601583612f28565b915061304782613008565b602082019050919050565b5f6020820190508181035f83015261306981613030565b9050919050565b7f4465736372697074696f6e2063616e6e6f7420626520656d70747900000000005f82015250565b5f6130a4601b83612f28565b91506130af82613070565b602082019050919050565b5f6020820190508181035f8301526130d181613098565b9050919050565b7f496d6167652055524c2063616e6e6f7420626520656d707479000000000000005f82015250565b5f61310c601983612f28565b9150613117826130d8565b602082019050919050565b5f6020820190508181035f83015261313981613100565b9050919050565b7f506f6c6c696e6720616c72656164792064656c657465640000000000000000005f82015250565b5f613174601783612f28565b915061317f82613140565b602082019050919050565b5f6020820190508181035f8301526131a181613168565b9050919050565b7f506f6c6c2068617320766f74657320616c7265616479000000000000000000005f82015250565b5f6131dc601683612f28565b91506131e7826131a8565b602082019050919050565b5f6020820190508181035f830152613209816131d0565b9050919050565b7f456e642064617465206d7573742062652067726561746572207468616e2073745f8201527f6172742064617465000000000000000000000000000000000000000000000000602082015250565b5f61326a602883612f28565b915061327582613210565b604082019050919050565b5f6020820190508181035f8301526132978161325e565b9050919050565b7f4e487b71000000000000000000000000000000000000000000000000000000005f52602260045260245ffd5b5f60028204905060018216806132e257607f821691505b6020821081036132f5576132f461329e565b5b50919050565b5f819050815f5260205f209050919050565b5f6020601f8301049050919050565b5f82821b905092915050565b5f600883026133577fffffffffffffffffffffffffffffffffffffffffffffffffffffffffffffffff8261331c565b613361868361331c565b95508019841693508086168417925050509392505050565b5f819050919050565b5f61339c61339761339284612359565b613379565b612359565b9050919050565b5f819050919050565b6133b583613382565b6133c96133c1826133a3565b848454613328565b825550505050565b5f90565b6133dd6133d1565b6133e88184846133ac565b505050565b5b8181101561340b576134005f826133d5565b6001810190506133ee565b5050565b601f82111561345057613421816132fb565b61342a8461330d565b81016020851015613439578190505b61344d6134458561330d565b8301826133ed565b50505b505050565b5f82821c905092915050565b5f6134705f1984600802613455565b1980831691505092915050565b5f6134888383613461565b9150826002028217905092915050565b6134a1826125dd565b67ffffffffffffffff8111156134ba576134b96123a4565b5b6134c482546132cb565b6134cf82828561340f565b5f60209050601f831160018114613500575f84156134ee578287015190505b6134f8858261347d565b86555061355f565b601f19841661350e866132fb565b5f5b8281101561353557848901518255600182019150602085019450602081019050613510565b86831015613552578489015161354e601f891682613461565b8355505b6001600288020188555050505b505050505050565b7f4e487b71000000000000000000000000000000000000000000000000000000005f52601160045260245ffd5b5f61359e82612359565b91507fffffffffffffffffffffffffffffffffffffffffffffffffffffffffffffffff82036135d0576135cf613567565b5b600182019050919050565b7f4e487b71000000000000000000000000000000000000000000000000000000005f52603260045260245ffd5b7f6e616d652063616e6e6f7420626520656d7074790000000000000000000000005f82015250565b5f61363c601483612f28565b915061364782613608565b602082019050919050565b5f6020820190508181035f83015261366981613630565b9050919050565b7f696d6167652063616e6e6f7420626520656d70747900000000000000000000005f82015250565b5f6136a4601583612f28565b91506136af82613670565b602082019050919050565b5f6020820190508181035f8301526136d181613698565b9050919050565b7f416c726561647920636f6e7465737465640000000000000000000000000000005f82015250565b5f61370c601183612f28565b9150613717826136d8565b602082019050919050565b5f6020820190508181035f83015261373981613700565b9050919050565b7f416c726561647920766f746564000000000000000000000000000000000000005f82015250565b5f613774600d83612f28565b915061377f82613740565b602082019050919050565b5f6020820190508181035f8301526137a181613768565b9050919050565b7f506f6c6c696e67206e6f7420617661696c61626c6500000000000000000000005f82015250565b5f6137dc601583612f28565b91506137e7826137a8565b602082019050919050565b5f6020820190508181035f830152613809816137d0565b9050919050565b7f4e6f7420656e6f75676820636f6e74657374616e7473000000000000000000005f82015250565b5f613844601683612f28565b915061384f82613810565b602082019050919050565b5f6020820190508181035f83015261387181613838565b9050919050565b7f566f74696e67206d75737420626520696e2073657373696f6e000000000000005f82015250565b5f6138ac601983612f28565b91506138b782613878565b602082019050919050565b5f6020820190508181035f8301526138d9816138a0565b9050919050565b6138e981612359565b82525050565b5f6020820190506139025f8301846138e0565b92915050565b7f53746172742064617465206d7573742062652067726561746572207468616e205f8201527f3000000000000000000000000000000000000000000000000000000000000000602082015250565b5f613962602183612f28565b915061396d82613908565b604082019050919050565b5f6020820190508181035f83015261398f81613956565b9050919050565b5f6139a082612359565b91506139ab83612359565b92508282026139b981612359565b915082820484148315176139d0576139cf613567565b5b5092915050565b5f6139e182612359565b91506139ec83612359565b9250828201905080821115613a0457613a03613567565b5b9291505056fea26469706673582212202b8040e31142c5c8c682291d9128d2fa42de8e6998745a995162877673c5628864736f6c63430008150033",
  "immutableReferences": {},
  "source": "//SPDX-License-Identifier: MIT\r\npragma solidity >=0.7.0 <0.9.0;\r\nimport '@openzeppelin/contracts/utils/Counters.sol';\r\n\r\ncontract DappVotes {\r\n  using Counters for Counters.Counter;\r\n  Counters.Counter private totalPolls;\r\n  Counters.Counter private totalContestants;\r\n\r\n  struct PollStruct {\r\n    uint id;\r\n    string image;\r\n    string title;\r\n    string description;\r\n    uint votes;\r\n    uint contestants;\r\n    bool deleted;\r\n    address director;\r\n    uint startsAt;\r\n    uint endsAt;\r\n    uint timestamp;\r\n    address[] voters;\r\n    string[] avatars;\r\n  }\r\n\r\n  struct ContestantStruct {\r\n    uint id;\r\n    string image;\r\n    string name;\r\n    address voter;\r\n    uint votes;\r\n    address[] voters;\r\n  }\r\n\r\n  mapping(uint => bool) pollExist;\r\n  mapping(uint => PollStruct) polls;\r\n  mapping(uint => mapping(address => bool)) voted;\r\n  mapping(uint => mapping(address => bool)) contested;\r\n  mapping(uint => mapping(uint => ContestantStruct)) contestants;\r\n\r\n  event Voted(address indexed voter, uint timestamp);\r\n\r\n  function createPoll(\r\n    string memory image,\r\n    string memory title,\r\n    string memory description,\r\n    uint startsAt,\r\n    uint endsAt\r\n  ) public {\r\n    require(bytes(title).length > 0, 'Title cannot be empty');\r\n    require(bytes(description).length > 0, 'Description cannot be empty');\r\n    require(bytes(image).length > 0, 'Image URL cannot be empty');\r\n    require(startsAt > 0, 'Start date must be greater than 0');\r\n    require(endsAt > startsAt, 'End date must be greater than start date');\r\n\r\n    totalPolls.increment();\r\n\r\n    PollStruct memory poll;\r\n    poll.id = totalPolls.current();\r\n    poll.title = title;\r\n    poll.description = description;\r\n    poll.image = image;\r\n    poll.startsAt = startsAt;\r\n    poll.endsAt = endsAt;\r\n    poll.director = msg.sender;\r\n    poll.timestamp = currentTime();\r\n\r\n    polls[poll.id] = poll;\r\n    pollExist[poll.id] = true;\r\n  }\r\n\r\n  function updatePoll(\r\n    uint id,\r\n    string memory image,\r\n    string memory title,\r\n    string memory description,\r\n    uint startsAt,\r\n    uint endsAt\r\n  ) public {\r\n    require(pollExist[id], 'Poll not found');\r\n    require(polls[id].director == msg.sender, 'Unauthorized entity');\r\n    require(bytes(title).length > 0, 'Title cannot be empty');\r\n    require(bytes(description).length > 0, 'Description cannot be empty');\r\n    require(bytes(image).length > 0, 'Image URL cannot be empty');\r\n    require(!polls[id].deleted, 'Polling already deleted');\r\n    require(polls[id].votes < 1, 'Poll has votes already');\r\n    require(endsAt > startsAt, 'End date must be greater than start date');\r\n\r\n    polls[id].title = title;\r\n    polls[id].description = description;\r\n    polls[id].startsAt = startsAt;\r\n    polls[id].endsAt = endsAt;\r\n    polls[id].image = image;\r\n  }\r\n\r\n  function deletePoll(uint id) public {\r\n    require(pollExist[id], 'Poll not found');\r\n    require(polls[id].director == msg.sender, 'Unauthorized entity');\r\n    require(polls[id].votes < 1, 'Poll has votes already');\r\n    polls[id].deleted = true;\r\n  }\r\n\r\n  function getPoll(uint id) public view returns (PollStruct memory) {\r\n    return polls[id];\r\n  }\r\n\r\n  function getPolls() public view returns (PollStruct[] memory Polls) {\r\n    uint available;\r\n    for (uint i = 1; i <= totalPolls.current(); i++) {\r\n        if(!polls[i].deleted) available++;\r\n    }\r\n\r\n    Polls = new PollStruct[](available);\r\n    uint index;\r\n\r\n    for (uint i = 1; i <= totalPolls.current(); i++) {\r\n        if(!polls[i].deleted) {\r\n            Polls[index++] = polls[i];\r\n        }\r\n    }\r\n  }\r\n\r\n  function contest(uint id, string memory name, string memory image) public {\r\n    require(pollExist[id], 'Poll not found');\r\n    require(bytes(name).length > 0, 'name cannot be empty');\r\n    require(bytes(image).length > 0, 'image cannot be empty');\r\n    require(polls[id].votes < 1, 'Poll has votes already');\r\n    require(!contested[id][msg.sender], 'Already contested');\r\n\r\n    totalContestants.increment();\r\n\r\n    ContestantStruct memory contestant;\r\n    contestant.name = name;\r\n    contestant.image = image;\r\n    contestant.voter = msg.sender;\r\n    contestant.id = totalContestants.current();\r\n\r\n    contestants[id][contestant.id] = contestant;\r\n    contested[id][msg.sender] = true;\r\n    polls[id].avatars.push(image);\r\n    polls[id].contestants++;\r\n  }\r\n\r\n  function getContestant(uint id, uint cid) public view returns (ContestantStruct memory) {\r\n    return contestants[id][cid];\r\n  }\r\n\r\n  function getContestants(uint id) public view returns (ContestantStruct[] memory Contestants) {\r\n    uint available;\r\n    for (uint i = 1; i <= totalContestants.current(); i++) {\r\n        if(contestants[id][i].id == i) available++;\r\n    }\r\n\r\n    Contestants = new ContestantStruct[](available);\r\n    uint index;\r\n\r\n    for (uint i = 1; i <= totalContestants.current(); i++) {\r\n        if(contestants[id][i].id == i) {\r\n            Contestants[index++] = contestants[id][i];\r\n        }\r\n    }\r\n  }\r\n\r\n  function vote(uint id, uint cid) public {\r\n    require(pollExist[id], 'Poll not found');\r\n    require(!voted[id][msg.sender], 'Already voted');\r\n    require(!polls[id].deleted, 'Polling not available');\r\n    require(polls[id].contestants > 1, 'Not enough contestants');\r\n    require(\r\n      currentTime() >= polls[id].startsAt && currentTime() < polls[id].endsAt,\r\n      'Voting must be in session'\r\n    );\r\n\r\n    polls[id].votes++;\r\n    polls[id].voters.push(msg.sender);\r\n\r\n    contestants[id][cid].votes++;\r\n    contestants[id][cid].voters.push(msg.sender);\r\n    voted[id][msg.sender] = true;\r\n\r\n    emit Voted(msg.sender, currentTime());\r\n  }\r\n\r\n  function currentTime() internal view returns (uint256) {\r\n    return (block.timestamp * 1000) + 1000;\r\n  }\r\n}",
  "sourcePath": "D:\\Ky 1 Nam 5\\Blockchain\\BTL_Blockchain\\contracts\\DappVotes.sol",
  "compiler": {
    "name": "solc",
    "version": "0.8.21+commit.d9974bed.Emscripten.clang"
  },
  "schemaVersion": "3.4.16",
  "updatedAt": "2025-01-02T01:08:07.806Z",
  "networkType": "ethereum",
  "devdoc": {
    "kind": "dev",
    "methods": {},
    "version": 1
  },
  "userdoc": {
    "kind": "user",
    "methods": {},
    "version": 1
  }
}